:100000003DC100006BC1000069C1000067C1000074
:1000100065C1000063C1000061C100005FC1000054
:100020005DC1000058C4000056C4000054C4000064
:1000300055C1000053C1000051C100004FC1000074
:100040004DC100004BC1000049C1000047C1000084
:1000500045C1000043C1000041C10000F2C30000DF
:100060003DC1000016C30000EBC2000037C1000014
:1000700035C1000033C1000031C100002FC10000B4
:100080002DC100002BC1000029C1000027C10000C4
:1000900025C1000023C1000021C100001FC10000D4
:1000A0001DC100001BC1000019C1000017C10000E4
:1000B00015C1000013C1000011C100000FC10000F4
:1000C0000DC100000BC1000009C1000007C1000004
:1000D00005C1000003C1000001C10000FFC0000015
:1000E000FDC00000AE03B103A003A403A803E8030E
:1000F000B503B903BF03C303C703CD03D103D503BE
:10010000E803DB03DF03E303222C20554E4954456B
:10011000203D202200222C2056414C455552203DA6
:10012000202200455449515545545445203D202234
:10013000006465636F64616765206465203A200030
:10014000307833300073656E642041434B20616E1C
:10015000642073706565640000000A0B02090C0DD1
:100160000E0807030401000000000000000000006A
:10017000000000000000000000000000000000007F
:10018000000000001211100000000000000000003C
:10019000000000000000000000000000000000005F
:1001A0002200250028002B002E003100340002011F
:1001B0000000050108010B010000210024002700B8
:1001C0002A002D0030003300010100000401070166
:1001D0000A01000020002300260029002C002F0027
:1001E00032000001000003010601090105050505B3
:1001F000070508080808020202020A0A080804049F
:1002000004040101010101010101030303030303CC
:100210000303040707070C0C0C0C0C0C0C0C02025B
:10022000020206060606060606060B0B0B0B0B0B58
:100230000B0B0102102020080810204010204080E5
:10024000020102010804020101020408102040809A
:100250008040201008040201800402018040201028
:100260000804020108040201010204081020408071
:1002700001020408102040807F0D250D11241FBEAF
:10028000CFEFD1E2DEBFCDBF00E00CBF25E0A8E09C
:10029000B4E001C01D92A43FB207E1F714E0A0E072
:1002A000B2E0EAE4F3E200E00BBF02C007900D9277
:1002B000A830B107D9F711E0CDE3D1E000E006C0E6
:1002C00021970109802FFE010E94300FCC33D10706
:1002D00080E00807A9F7BED50C94941191CEFC01DB
:1002E000538D448D252F30E0842F90E0821B930B9B
:1002F000541710F0CF96089501970895FC01918D41
:10030000828D981761F0828DDF01A80FB11D5D9677
:100310008C91928D9F5F9F73928F90E008958FEFE5
:100320009FEF0895FC01918D828D981731F0828D99
:10033000E80FF11D858D90E008958FEF9FEF0895F0
:10034000FC01918D228D892F90E0805C9F4F821B54
:1003500091098F739927089586EB94E0F1DF21E0EE
:10036000892B09F420E0822F0895FC01848DDF01A0
:10037000A80FB11DA35ABF4F2C91848D90E0019618
:100380008F739927848FA689B7892C93A089B18907
:100390008C9180648C93938D848D981306C0028811
:1003A000F389E02D80818F7D80830895EF92FF9205
:1003B0000F931F93CF93DF93EC0181E0888F9B8D88
:1003C0008C8D981305C0E889F989808185FD23C04B
:1003D000F62E0B8D10E00F5F1F4F0F731127E02ECD
:1003E0008C8DE8120BC00FB607FCFACFE889F989AB
:1003F000808185FFF5CFCE01B8DFF2CF8B8DFE0176
:10040000E80FF11DE35AFF4FF0820B8FEA89FB8959
:100410008081806207C0EE89FF896083E889F9895D
:1004200080818064808381E090E0DF91CF911F9193
:100430000F91FF90EF900895CF93DF93EC01888D9B
:100440008823C1F0EA89FB89808185FD05C0A889E0
:10045000B9898C9186FD0EC00FB607FCF5CF80815F
:1004600085FFF2CFA889B9898C9185FFEDCFCE01A8
:100470007CDFE8CFDF91CF91089580E090E0892B79
:1004800019F06ADF811125C080E090E0892B41F0EE
:1004900080E090E0892B21F00E94000081111CC0B7
:1004A00080E090E0892B41F080E090E0892B21F002
:1004B0000E940000811113C080E090E0892BA1F020
:1004C00080E090E0892B81F00E94000081110AC039
:1004D00008950E940000D8CF0E940000E1CF0E9442
:1004E0000000EACF0C94000008952091B4043091EC
:1004F000B5042817390771F49091B2048091B304C0
:10050000981741F0E091B204F0E0E759FB4F808189
:1005100090E008958FEF9FEF089508951F93CF9374
:10052000DF93DC015C962D913C915D97211531059F
:1005300039F481E090E013969C938E9312973DC01E
:100540005196ED91FC91529750969C915097892F1E
:1005500080951FB75E964C915E9741FB772770F9A7
:1005600041FD6095F8944081772311F0492B01C03B
:1005700048234083E9012197F1F748E0508160FF6B
:1005800002C0592B01C058235083E9012197F1F78C
:100590006695415099F7772321F0908189238083D4
:1005A00003C08081982B90831FBF5C968D919C9196
:1005B0005D970197F1F721E030E0C901DF91CF911C
:1005C0001F9108952091B4043091B504281739077C
:1005D00069F48091B3042091B20490E0805C9F4F55
:1005E000821B910960E470E00C94DF0E80E090E0E3
:1005F00008952091B4043091B50428173907B9F44F
:100600009091B2048091B304981789F0E091B204FC
:10061000F0E0E759FB4F80812091B20430E02F5F7A
:100620003F4F2F7333272093B20490E008958FEF4C
:100630009FEF0895089580E090E008950E945D1175
:100640001F920F920FB60F9211240BB60F922F9399
:100650003F934F935F936F937F938F939F93AF934A
:10066000BF93EF93FF9386EB94E07FDEFF91EF91D2
:10067000BF91AF919F918F917F916F915F914F91BA
:100680003F912F910F900BBE0F900FBE0F901F90B8
:1006900018951F920F920FB60F9211240BB60F925E
:1006A0002F938F939F93EF93FF93E091C604F09164
:1006B000C7048081E091CC04F091CD0482FD12C08A
:1006C00090818091CF048F5F8F732091D004821727
:1006D00051F0E091CF04F0E0EA54FB4F958F809306
:1006E000CF0401C08081FF91EF919F918F912F9155
:1006F0000F900BBE0F900FBE0F901F901895362FC6
:1007000090E0FC01E85AFE4F4491FC01EE5CFD4F85
:100710002491FC01E451FE4F9491992309F46BC09C
:10072000442309F455C050E0FA013197E231F10554
:1007300008F04EC08827EE58FF4F8F4F0C94300FB3
:10074000809180008F7707C0809180008F7D03C0EB
:1007500080918000877F809380003AC084B58F7736
:1007600002C084B58F7D84BD33C08091B0008F7787
:1007700003C08091B0008F7D8093B00029C080912C
:1007800090008F7707C0809190008F7D03C080918B
:100790009000877F809390001BC08091A0008F778E
:1007A00007C08091A0008F7D03C08091A000877F4B
:1007B0008093A0000DC0809120018F7707C08091A9
:1007C00020018F7D03C080912001877F80932001CD
:1007D000E92FF0E0EE0FFF1FE256FE4FA591B49116
:1007E0008FB7F894EC91311103C020952E2301C0EE
:1007F0002E2B2C938FBF08953FB7F8948091AE04B1
:100800009091AF04A091B004B091B10426B5A89B1B
:1008100005C02F3F19F00196A11DB11D3FBFBA2F92
:10082000A92F982F8827820F911DA11DB11DBC01F2
:10083000CD0142E0660F771F881F991F4A95D1F7B7
:1008400008951F920F920FB60F9211242F933F938A
:100850008F939F93AF93BF938091AA049091AB0421
:10086000A091AC04B091AD043091A90423E0230F12
:100870002D3720F40196A11DB11D05C026E8230FD8
:100880000296A11DB11D2093A9048093AA04909300
:10089000AB04A093AC04B093AD048091AE049091EE
:1008A000AF04A091B004B091B1040196A11DB11D97
:1008B0008093AE049093AF04A093B004B093B104BE
:1008C000BF91AF919F918F913F912F910F900FBE4C
:1008D0000F901F9018951F920F920FB60F92112430
:1008E0000BB60F922F933F934F935F936F937F932A
:1008F0008F939F93AF93BF93EF93FF93E091B404D3
:10090000F091B504309709F451C0968DA685B7854E
:10091000858591FF04C09C91892329F447C09C914F
:10092000892309F043C0A389B4899C918589809566
:1009300089238C93868997890197F1F7608D718D52
:10094000A685B785558538E020E0CB010197F1F702
:10095000822F90E095958795282F4C91452309F09B
:100960002068315091F7868D81FD20958091B304E8
:1009700090E001968F7399273091B204381749F0AF
:10098000A091B304B0E0A759BB4F2C938093B3045C
:1009900003C0868D8160868F828D938D0197F1F7DC
:1009A000A389B4899C918589892B8C93FF91EF91C0
:1009B000BF91AF919F918F917F916F915F914F9177
:1009C0003F912F910F900BBE0F900FBE0F901F9075
:1009D000189580916D0590916E05892B59F1E091E4
:1009E000B404F091B50485E0E335F80719F13097C8
:1009F00039F0A389B4899C918589809589238C934A
:100A0000809171058E7F809371051092B3041092CE
:100A1000B20483E595E09093B5048093B404E0912B
:100A20006605F0916705908180916805892B808328
:100A300081E0089580E00895CF939B01AC0110926E
:100A40006E0510926D0510926C0510926B05109258
:100A50006A051092690560E079E08DE390E00E94FC
:100A6000140FF9012430310518F0C901039702C0B1
:100A700081E090E09093700580936F0580915F0511
:100A8000C6EFC80FC43048F09EEC980F943028F0A1
:100A900092EC980F983008F08CC0B9017695679564
:100AA0006431710518F06351710902C061E070E0B2
:100AB00070936A0560936905369720F0B901655017
:100AC000710902C061E070E070936C0560936B0582
:100AD000B901660F771F260F371F36952795369574
:100AE00027952D30310518F02C50310902C021E036
:100AF00030E030936E0520936D05C43060F09EECBD
:100B0000980F943040F092EC980F983008F453C04E
:100B1000A0E0B0E052C0A8E6B0E0E8E6F0E09081E6
:100B2000C43018F08E53883010F081E001C084E0AA
:100B3000892B8C9380915F0596EF980F943058F035
:100B40002EEC280F243038F022EC280F283030F01B
:100B500020E030E005C02BE630E002C02DE630E0BA
:100B60003093670520936605943010F49AEF0BC01C
:100B7000823381F0833381F0843381F092EC980FDB
:100B8000983070F492EC980F81E001C0880F9A952C
:100B9000EAF707C088E005C084E003C082E001C036
:100BA00081E08093680580916F05909170050197B1
:100BB000F1F7CF910ECFA8E6B0E0983008F4ADCFB2
:100BC000E0E0F0E0ACCF009761F0FC010190002084
:100BD000E9F73197AF01481B590BBC0186EB94E054
:100BE000FAC080E090E00895EECF0F931F93CF936B
:100BF000DF938C01C0E0D0E0F801EC0FFD1F6491A1
:100C0000662371F0E091B604F091B7040190F08191
:100C1000E02D86EB94E01995892B11F02196ECCF0D
:100C2000CE01DF91CF911F910F910895CF93DF9364
:100C3000FC01448155816081718186EB94E0CBD0C9
:100C4000EC0187E492E0BFDF8C0F9D1FDF91CF9115
:100C50000895CF93DF93B7DFEC0187E492E0B3DF31
:100C60008C0F9D1FDF91CF910895FC012481358168
:100C7000232B31F421E061157105A1F0FB0108C0BF
:100C8000FC01808191816115710531F421E0FC0145
:100C90008081882339F005C00E94751121E0892BDD
:100CA00009F020E0822F08950F931F93CF93DF93D5
:100CB0008C01EB01FC01808191810097B1F068818A
:100CC00079816115710579F0428153812C813D81D3
:100CD0004217530740F00E947E118C819D81F801DC
:100CE0009583848313C00E94E10F88819981F80164
:100CF000918380838A819B81938382838C819D8170
:100D000095838483198218821B821A821D821C8219
:100D1000DF91CF911F910F9108950F931F93CF9360
:100D2000DF93EC0188819981009729F02A813B812A
:100D30002617370788F48B016F5F7F4F0E94791069
:100D4000009761F0998388831B830A832C813D81FE
:100D5000232B11F4FC01108281E001C080E0DF91BF
:100D6000CF911F910F910895CF93DF93EC0188816C
:100D70009981009711F00E94E10F198218821D825B
:100D80001C821B821A82DF91CF910895EF92FF920D
:100D90000F931F93CF93DF93EC017B018A01BA017C
:100DA000BCDF811103C0CE01DFDF07C01D830C83D0
:100DB000B701888199810E947E11CE01DF91CF9188
:100DC0001F910F91FF90EF900895FC018081918118
:100DD0000C94E10F0895CF92DF92EF92FF920F9360
:100DE0001F93CF93DF936C017A018B01C0E0D0E0B9
:100DF000CE15DF0589F0D8016D918D01D601ED91F9
:100E0000FC910190F081E02DC6011995892B11F418
:100E10007E0102C02196ECCFC701DF91CF911F91D7
:100E20000F91FF90EF90DF90CF900895FC01118219
:100E3000108213821282158214826115710549F0A5
:100E4000FB0101900020E9F73197AF01461B570BDA
:100E50009DCF0895CF93DF93CDB7DEB7AB970FB695
:100E6000F894DEBF0FBECDBF789484B5826084BD98
:100E700084B5816084BD85B5826085BD85B581609E
:100E800085BD80916E00816080936E00109281001C
:100E900080918100826080938100809181008160D7
:100EA0008093810080918000816080938000809198
:100EB000B10084608093B1008091B0008160809324
:100EC000B0008091910082608093910080919100A8
:100ED0008160809391008091900081608093900068
:100EE0008091A10082608093A1008091A100816027
:100EF0008093A1008091A00081608093A0008091E8
:100F00002101826080932101809121018160809381
:100F100021018091200181608093200180917A00DD
:100F2000846080937A0080917A00826080937A0056
:100F300080917A00816080937A0080917A00806845
:100F400080937A001092C100E091C604F091C7042A
:100F500082E08083E091C204F091C3041082E091AA
:100F6000C404F091C5048FEC80831092CE04E0910C
:100F7000CA04F091CB0486E08083E091C804F0912C
:100F8000C904808180618083E091C804F091C90424
:100F9000808188608083E091C804F091C9048081D9
:100FA00080688083E091C804F091C90480818F7DBE
:100FB0008083609100027091010280910202909101
:100FC00003023ADD06DD8CE291E0A0E0B0E0809320
:100FD000000290930102A0930202B09303026CE21C
:100FE00071E080E090E028DDF4DC8EE292E0FCDD50
:100FF000C0900002D0900102E0900202F090030243
:10100000F7FE27C0E091B604F091B7040190F0819B
:10101000E02D6DE286EB94E0199522273327A90194
:101020002C193D094E095F0919A28E010F5D1F4F52
:10103000CA01B9012AE030E040E050E0D3D6605D5B
:10104000D8016E938D01211531054105510581F7B8
:1010500016C0A701960119A28E010F5D1F4FCA018C
:10106000B9012AE030E040E050E0BCD6605DF80114
:1010700062938F01211531054105510581F7C801A2
:10108000A2DD87E492E09FDD8AE492E0E2DD6FEA90
:1010900083E595E043DA6FE383E595E03FDA61E2CB
:1010A00083E595E03BDA6DE883E595E037DA6AE0C1
:1010B00083E595E033DA83E595E084DA892B09F45A
:1010C0009AC483E595E095DA182F1F77109368048A
:1010D0001A8219821C821B821E821D826091EA057F
:1010E0007091EB056115710541F04091EE0550914D
:1010F000EF05CE0101964ADE03C0CE01019634DE33
:101100001AA31BA20D811E810F5F1F4FB801CE01D4
:10111000019603DE882371F029813A818D819E81B9
:10112000BE016E5D7F4F820F931F0E947E111E8352
:101130000D8303C0CE01019617DE69817A816115A6
:10114000710531F04D815E818AEE95E01FDE03C0AE
:101150008AEE95E009DECE01019637DE64E572E0A5
:101160008AEE95E082DD882321F185E491E03DDD82
:1011700087E492E028DD66E083E595E0CFD960E37F
:1011800083E595E0CBD960E383E595E0C7D960E3DB
:1011900083E595E0C3D96DE883E595E0BFD96AE0C2
:1011A00083E595E0BBD980E491E01FDD87E492E020
:1011B0000ADD809168048A3009F01DC42DB73EB75E
:1011C00039A728A70091EE051091EF05C8010196F7
:1011D000ADB7BEB7A81BB90B0FB6F894BEBF0FBE14
:1011E000ADBFEDB7FEB731967F01892B09F473C30C
:1011F000309709F470C30115110559F06091EA05A3
:101200007091EB05A801CF010E948511F701E00F55
:10121000F11F108260C366E672E0C7010E9475117B
:10122000892B09F4DAC368E270E0C7010E946A11F1
:101230005C0169E270E0C7010E946A118C016AE2F8
:1012400070E0C7010E946A114C016AE070E0C701BA
:101250000E946A111C01B701CE018296E7DD6AA0E7
:101260007BA06114710409F03BC381E391E0BDDC14
:10127000CE018296DBDCA114B10409F473C301151D
:10128000110509F46FC32114310409F46BC30A1565
:101290001B0508F467C36501CE18DF08D092670408
:1012A000C0926604BFE1CB16D10408F06FC3A6015B
:1012B000B70186E494E00E948511F601EA5BFB4FDA
:1012C0001082B5016F5F7F4F8114910409F04FC305
:1012D000061B170B10936704009366040F3111056A
:1012E00008F054C3A80187E294E00E948511F80138
:1012F000E95DFB4F10821092080471012FEFE21A92
:10130000F20A83E291E071DC86E494E06DDC66E44D
:1013100074E0CE0101968ADD6CE972E0CE0101969F
:10132000A4DC182FCE01019650DD112371F067E285
:1013300074E0CE0101967ADDBE016F5F7F4F84EECF
:1013400095E0B2DCCE01019640DD66E474E0CE01AA
:1013500001966CDD61EA72E0CE01019686DC182F01
:10136000CE01019632DD112371F067E274E0CE0107
:1013700001965CDDBE016F5F7F4F8EED95E094DCE2
:10138000CE01019622DD66E474E0CE0101964EDDC9
:1013900067EA72E0CE01019668DC182FCE01019653
:1013A00014DD112371F067E274E0CE0101963EDD99
:1013B000BE016F5F7F4F88ED95E076DCCE01019630
:1013C00004DD66E474E0CE01019630DD6DEA72E082
:1013D000CE0101964ADC182FCE010196F6DC1123CE
:1013E00071F067E274E0CE01019620DDBE016F5F0F
:1013F0007F4F82ED95E058DCCE010196E6DC66E495
:1014000074E0CE01019612DD63EB72E0CE0101962D
:101410002CDC182FCE010196D8DC112371F067E285
:1014200074E0CE01019602DDBE016F5F7F4F8CEC50
:1014300095E03ADCCE010196C8DC66E474E0CE01AA
:101440000196F4DC69EB72E0CE0101960EDC182FF8
:10145000CE010196BADC112371F067E274E0CE018F
:101460000196E4DCBE016F5F7F4F86EC95E01CDCEB
:10147000CE010196AADC66E474E0CE010196D6DCCA
:101480006FEB72E0CE010196F0DB182FCE010196D2
:101490009CDC112371F067E274E0CE010196C6DC9A
:1014A000BE016F5F7F4F80EC95E0FEDBCE010196C1
:1014B0008CDC66E474E0CE010196B8DC65EC72E089
:1014C000CE010196D2DB182FCE0101967EDC1123CE
:1014D00071F067E274E0CE010196A8DCBE016F5F97
:1014E0007F4F8AEB95E0E0DBCE0101966EDC66E48F
:1014F00074E0CE0101969ADC6BEC72E0CE010196AD
:10150000B4DB182FCE01019660DC112371F067E285
:1015100074E0CE0101968ADCBE016F5F7F4F84EBE1
:1015200095E0C2DBCE01019650DC66E474E0CE01AA
:1015300001967CDC60ED72E0CE01019696DB182FFF
:10154000CE01019642DC112371F067E274E0CE0116
:1015500001966CDCBE016F5F7F4F8EEA95E0A4DBE5
:10156000CE01019632DC66E474E0CE0101965EDCC9
:1015700065ED72E0CE01019678DB182FCE01019661
:1015800024DC112371F067E274E0CE0101964EDC99
:10159000BE016F5F7F4F88EA95E086DBCE01019642
:1015A00014DC66E474E0CE01019640DC6AED72E082
:1015B000CE0101965ADB182FCE01019606DC1123CD
:1015C00071F067E274E0CE01019630DCBE016F5F1E
:1015D0007F4F82EA95E068DBCE010196F6DB66E498
:1015E00074E0CE01019622DC6FED72E0CE0101962F
:1015F0003CDB182FCE010196E8DB112371F067E286
:1016000074E0CE01019612DCBE016F5F7F4F8CE962
:1016100095E04ADBCE010196D8DB66E474E0CE01AA
:10162000019604DC64EE72E0CE0101961EDB182FF9
:10163000CE010196CADB112371F067E274E0CE019E
:101640000196F4DBBE016F5F7F4F86E995E02CDBEE
:10165000CE010196BADB66E474E0CE010196E6DBCA
:1016600069EE72E0CE01019600DB182FCE010196E3
:10167000ACDB112371F067E274E0CE010196D6DB9A
:10168000BE016F5F7F4F80E995E00EDBCE010196D2
:101690009CDB66E474E0CE010196C8DB6EEE72E07E
:1016A000CE010196E2DA182FCE0101968EDB1123CE
:1016B00071F067E274E0CE010196B8DBBE016F5FA6
:1016C0007F4F8AE895E0F0DACE0101967EDB66E492
:1016D00074E0CE010196AADB63EF72E0CE010196C1
:1016E000C4DA182FCE01019670DB112371F067E286
:1016F00074E0CE0101969ADBBE016F5F7F4F84E8F4
:1017000095E0D2DACE01019660DB66E474E0CE01AA
:1017100001968CDB68EF72E0CE010196A6DA182FF5
:10172000CE01019652DB112371F067E274E0CE0125
:1017300001967CDBBE016F5F7F4F8EE795E0B4DAE8
:10174000CE01019642DB66E474E0CE0101966EDBC9
:101750006DEF72E0CE01019688DA182FCE01019666
:1017600034DB112371F067E274E0CE0101965EDB99
:10177000BE016F5F7F4F88E795E096DACE01019654
:1017800024DB66E474E0CE01019650DB64E073E094
:10179000CE0101966ADA182FCE01019616DB1123CD
:1017A00009F486C067E274E0CE0101963FDBBE011A
:1017B0006F5F7F4F82E795E077DACE01019605DB18
:1017C0008BE093E011DA84EE95E030DA81E193E08A
:1017D0000BDA8EED95E02ADA89E193E005DA88EDFF
:1017E00095E024DA81E293E0FFD982ED95E01EDAFC
:1017F00089E293E0F9D98CEC95E018DA81E393E083
:10180000F3D986EC95E012DA89E393E0EDD980EC28
:1018100095E00CDA81E493E0E7D98AEB95E006DA0B
:1018200089E493E0E1D984EB95E000DA81E593E087
:10183000DBD98EEA95E0FAD989E593E0D5D988EA33
:1018400095E0F4D981E693E0CFD982EA95E0EED92C
:1018500089E693E0C9D98CE995E0E8D981E793E07E
:10186000C3D986E995E0E2D989E793E0BDD980E95B
:1018700095E0DCD981E893E0B7D98AE895E0D6D93C
:1018800089E893E0B1D984E895E0D0D981E993E083
:10189000ABD98EE795E0CAD989E993E0A5D988E765
:1018A00095E0C4D982EA93E09FD982E795E0BED95A
:1018B00085E191E09AD987E294E096D98091080475
:1018C000882331F088E091E090D988E094E08CD9C9
:1018D000CE0182967ADAD7018C9181119CCC7DC0A1
:1018E0004EA15FA14115510509F4BFCC630126014A
:1018F000FFEFCF1ADF0AD2018C91082E000C990B52
:101900004AA75BA751D24AA55BA5892B81F76A013B
:10191000B1E0CB1AD108C60CD71CD6018C91082E89
:10192000000C990B41D2892B71F4A6014F5F5F4FD8
:10193000441955095FA34EA36414750458F4B20109
:10194000C301BFD407C0C414D50478F3E1E0CE1AB4
:10195000D108E3CFEAA1FBA18EA19FA1E80FF91F57
:10196000108283CC8BE692E03FD9C70114C02814C3
:10197000390408F4ADCC7401E61AF70AF092670452
:10198000E0926604FFE1EF16F10450F0E2E0E0932C
:10199000650482E892E05DD9CE01829616DA1DC018
:1019A000A70187E294E0B1D4F701E95DFB4F108213
:1019B000B4016F5F7F4F061B170B109367040093F2
:1019C00066040F31110510F7A80188E094E09DD45A
:1019D000F801E85FFB4F108290CC40E050E069E4F2
:1019E00072E08AEE95E0D2D928A539A50FB6F89411
:1019F0003EBF0FBE2DBF0E94FC034B015C0188E877
:101A0000C82E83E1D82EE12CF12C0E94FC03DC01CE
:101A1000CB0188199909AA09BB09883E9340A10501
:101A2000B10558F031E0C31AD108E108F10888EE99
:101A3000880E83E0981EA11CB11CC114D104E104DE
:101A4000F10419F70E943D02BECA80E292E0909331
:101A50005405809353058091B4049091B504835547
:101A6000954071F4E0916605F09167059081809151
:101A700068058095892380831092B5041092B40480
:101A800082E795E0A2D988E795E09FD98EE795E0B7
:101A90009CD984E895E099D98AE895E096D980E9BF
:101AA00095E093D986E995E090D98CE995E08DD9B8
:101AB00082EA95E08AD988EA95E087D98EEA95E0AE
:101AC00084D984EB95E081D98AEB95E07ED980ECCE
:101AD00095E07BD986EC95E078D98CEC95E075D9CA
:101AE00082ED95E072D988ED95E06FD98EED95E0A5
:101AF0006CD984EE95E069D98AEE95E066C9CF92FB
:101B0000DF92EF92FF92CF93DF931092B90410927D
:101B1000B80468EEC62E63E0D62EE12CF12CC092FC
:101B2000BA04D092BB04E092BC04F092BD048EE0F3
:101B300092E09093B7048093B60485EC90E0909384
:101B4000C3048093C20484EC90E09093C504809316
:101B5000C40480EC90E09093C7048093C60481ECA9
:101B600090E09093C9048093C80482EC90E0909335
:101B7000CB048093CA0486EC90E09093CD048093CC
:101B8000CC041092CF041092D0041092D104109281
:101B9000D20469E472E08AEE95E048D96BEA73E01A
:101BA00084EE95E043D96EEA73E08EED95E03ED980
:101BB00065EB73E088ED95E039D96CEB73E082ED6D
:101BC00095E034D962EC73E08CEC95E02FD968ECA9
:101BD00073E086EC95E02AD96FEC73E080EC95E039
:101BE00025D966EF73E08AEB95E020D966ED73E0C6
:101BF00084EB95E01BD96AED73E08EEA95E016D987
:101C00006EED73E088EA95E011D962EE73E082EA46
:101C100095E00CD968EE73E08CE995E007D96DEE9C
:101C200073E086E995E002D963EF73E080E995E01F
:101C3000FDD868EF73E08AE895E0F8D86DEF73E0BF
:101C400084E895E0F3D862E074E08EE795E0EED8A2
:101C500065EA72E088E795E0E9D869EC72E082E72E
:101C600095E0E4D81092560510925505C09257059C
:101C7000D0925805E0925905F0925A0580E292E020
:101C8000909354058093530510926A05109269054C
:101C900010926C0510926B0510926E0510926D05F6
:101CA0001092700510926F05609171056E7F6D7FC7
:101CB000609371056695617081E068278AE00E94F3
:101CC0007F03ECE3F2E02491E6EFF1E084918823D6
:101CD00099F090E0880F991FFC01E854FE4FA59100
:101CE000B491FC01E256FE4F859194918FB7F89420
:101CF000EC91E22BEC938FBFECE3F2E0E491E09304
:101D00006305E6EFF1E0E491F0E0EE0FFF1FE2562D
:101D1000FE4F859194919093650580936405EDE362
:101D2000F2E02491E7EFF1E084918823C1F090E0A4
:101D3000880F991FFC01E854FE4FC591D491FC0116
:101D4000E256FE4FA591B4919FB7F8948881E22F97
:101D5000E0958E2388838C91E823EC939FBF80913C
:101D6000710581FD04C061E08BE00E947F038BE080
:101D700080935F05EDE3F2E0E491E0936005E7EF27
:101D8000F1E0E491F0E0EE0FFF1FEE52FE4F85917F
:101D900094919093620580936105DF91CF91FF90BC
:101DA000EF90DF90CF900895911106C0803219F026
:101DB00089508550D0F7089599278827089597FB73
:101DC000072E16F4009406D077FD08D051D007FCFA
:101DD00005D03EF4909581959F4F0895709561953B
:101DE0007F4F0895A1E21A2EAA1BBB1BFD010DC057
:101DF000AA1FBB1FEE1FFF1FA217B307E407F507BB
:101E000020F0A21BB30BE40BF50B661F771F881F96
:101E1000991F1A9469F760957095809590959B012C
:101E2000AC01BD01CF010895052E97FB16F4009477
:101E30000FD057FD05D0D6DF07FC02D046F408C00E
:101E400050954095309521953F4F4F4F5F4F0895E6
:101E500090958095709561957F4F8F4F9F4F089516
:101E6000EE0FFF1F881F8BBF0790F691E02D19948E
:101E7000AA1BBB1B51E107C0AA1FBB1FA617B707B0
:101E800010F0A61BB70B881F991F5A95A9F78095CC
:101E90009095BC01CD010895CF93DF9382309105D9
:101EA00010F482E090E0E091F205F091F30520E07B
:101EB00030E0C0E0D0E0309711F140815181481707
:101EC0005907C0F04817590761F482819381209720
:101ED00019F09B838A832BC09093F3058093F205BE
:101EE00026C02115310519F04217530718F49A013D
:101EF000BE01DF01EF010280F381E02DDCCF21156F
:101F0000310509F1281B390B2430310590F4129664
:101F10008D919C9113976115710521F0FB019383BD
:101F2000828304C09093F3058093F205FD013296FD
:101F300044C0FD01E20FF31F8193919322503109B8
:101F40002D933C933AC02091F0053091F105232B5D
:101F500041F420910602309107023093F10520935D
:101F6000F00520910402309105022115310541F45C
:101F70002DB73EB74091080250910902241B350B42
:101F8000E091F005F091F105E217F307A0F42E1BA4
:101F90003F0B2817390778F0AC014E5F5F4F2417CD
:101FA000350748F04E0F5F1F5093F1054093F00541
:101FB0008193919302C0E0E0F0E0CF01DF91CF91F7
:101FC00008950F931F93CF93DF93009709F48CC06C
:101FD000FC013297138212820091F2051091F305F1
:101FE0000115110581F420813181820F931F209109
:101FF000F0053091F1052817390779F5F093F105CF
:10200000E093F00571C0D80140E050E0AE17BF0783
:1020100050F412962D913C911397AD012115310585
:1020200009F1D901F3CF9D01DA0133832283608165
:102030007181860F971F8217930769F4EC0128813D
:102040003981260F371F2E5F3F4F318320838A81CE
:102050009B8193838283452B29F4F093F305E093CE
:10206000F20542C01396FC93EE931297ED0149914D
:1020700059919E01240F351FE217F30771F48081F7
:102080009181840F951F029611969C938E93828165
:10209000938113969C938E931297E0E0F0E0D80121
:1020A00012968D919C911397009719F0F8018C016D
:1020B000F6CF8D919C9198012E5F3F4F820F931F19
:1020C0002091F0053091F1052817390769F4309710
:1020D00029F41092F3051092F20502C013821282C5
:1020E0001093F1050093F005DF91CF911F910F91AF
:1020F00008956F927F928F929F92AF92BF92CF92EC
:10210000DF92EF92FF920F931F93CF93DF93EC0137
:10211000009781F4CB01DF91CF911F910F91FF9038
:10212000EF90DF90CF90BF90AF909F908F907F9077
:102130006F90B2CEFC01E60FF71F9C0122503109CF
:10214000E217F30708F4A8C0D9010D911C9111976B
:1021500006171707A8F00530110508F49BC0C80141
:1021600004978617970708F495C002501109061BBB
:10217000170B019311936D937C93CF0122DF8AC0DB
:102180005B01A01AB10A4C01800E911EA091F205CC
:10219000B091F30540E050E0E12CF12C109709F4E8
:1021A0004AC0A815B905D1F56D907C9011976301CF
:1021B00082E0C80ED11CCA14DB0480F1A3014A19C5
:1021C0005B096A0182E0C80ED11C1296BC9012977E
:1021D0001396AC91B5E0CB16D10440F0B282A38344
:1021E00051834083D9016D937C930AC00E5F1F4FCA
:1021F000C301800F911FF90191838083EB2DFA2F8A
:10220000E114F10431F0D7011396FC93EE93129789
:1022100041C0F093F305E093F2053CC08D919C9191
:1022200011974817590708F4AC017D0112960D90DB
:10223000BC91A02DB3CF8091F0059091F105881548
:102240009905E1F446175707C8F48091040290916C
:102250000502009741F48DB79EB740910802509156
:102260000902841B950BE817F907B0F4F093F10508
:10227000E093F005F901718360830CC0CB010CDEA3
:102280007C01009749F0A801BE011BD0CE0199DE68
:10229000C70104C0CE0102C080E090E0DF91CF9181
:1022A0001F910F91FF90EF90DF90CF90BF90AF9074
:1022B0009F908F907F906F90089581E090E0F894C8
:1022C00033C0FB01DC0102C001900D92415050402F
:1022D000D8F70895FC018191861721F08823D9F75A
:1022E000992708953197CF010895FB01DC018D9165
:1022F000019080190110D9F3990B0895FB01DC01BD
:1023000001900D920020E1F70895FB01DC0141509E
:10231000504048F001900D920020C9F701C01D9275
:1023200041505040E0F7089511E0CDE3D1E000E0E6
:1023300005C0802FFE0194DD2196011DCE33D1070B
:0A23400080E00807B1F7F894FFCF22
:10234A002C0100000000F405800000000000D60106
:10235A00EB066F011C02A0017E0192010000000041
:10236A008E02EB061B038D02E202F9027502526528
:10237A007175657374696E672049522D6461746161
:10238A00206174203A20000D0A002F3F2120435279
:10239A00204C46002F4C475A345A4D463130304172
:1023AA00432E4D323900210D0A65004552524555DA
:1023BA00525F464F524D4154207265C3A775203A69
:1023CA0020004552524555525F444F4E4E45455F97
:1023DA0054524F505F4C4F4E4755450002462E46C9
:1023EA0000312E382E3100312E382E3200382E3858
:1023FA002E3100382E382E3200312E382E30003849
:10240A002E382E3000432E372E300033322E37002E
:10241A0035322E370037322E370033312E3700351A
:10242A00312E370037312E370033332E370035330C
:10243A002E370037332E370031332E370038322EFD
:10244A00382E310038322E382E32004646203A20B5
:10245A000056313831203A200056313832203A209D
:10246A000056383831203A200056383832203A207F
:10247A000056313830203A200056383830203A2079
:10248A000056433730203A200056333237203A205C
:10249A000056353237203A200056373237203A2054
:1024AA000056333137203A200056353137203A204A
:1024BA000056373137203A200056333337203A2036
:1024CA000056353337203A200056373337203A2022
:1024DA000056313337203A20005638323831203A04
:1024EA0020005638323832203A200030300031315C
:1024FA002E3039360031392E39393900372E3232F9
:10250A003600352E3431390033312E303936003128
:10251A00322E363435003233360032333500323318
:10252A003700302E31333900312E363000302E3418
:10253A00353700302E313600302E393000302E3605
:08254A003500302E383300008B
:020000023000CC
:10E000000D9489F10D94B2F10D94B2F10D94B2F129
:10E010000D94B2F10D94B2F10D94B2F10D94B2F1F0
:10E020000D94B2F10D94B2F10D94B2F10D94B2F1E0
:10E030000D94B2F10D94B2F10D94B2F10D94B2F1D0
:10E040000D94B2F10D94B2F10D94B2F10D94B2F1C0
:10E050000D94B2F10D94B2F10D94B2F10D94B2F1B0
:10E060000D94B2F10D94B2F10D94B2F10D94B2F1A0
:10E070000D94B2F10D94B2F10D94B2F10D94B2F190
:10E080000D94B2F10D94B2F10D94B2F10D94B2F180
:10E090000D94B2F10D94B2F10D94B2F10D94B2F170
:10E0A0000D94B2F10D94B2F10D94B2F10D94B2F160
:10E0B0000D94B2F10D94B2F10D94B2F10D94B2F150
:10E0C0000D94B2F10D94B2F10D94B2F10D94B2F140
:10E0D0000D94B2F10D94B2F10D94B2F10D94B2F130
:10E0E0000D94B2F141546D656761323536300041AF
:10E0F000726475696E6F206578706C6F72657220DE
:10E1000073746B3530305632206279204D4C530099
:10E11000426F6F746C6F616465723E004875683F52
:10E1200000436F6D70696C6564206F6E203D200048
:10E130004350552054797065202020203D20005FF9
:10E140005F4156525F415243485F5F3D2000415658
:10E1500052204C696243205665723D20004743437C
:10E160002056657273696F6E203D20004350552024
:10E1700049442020202020203D20004C6F7720663D
:10E18000757365202020203D20004869676820665F
:10E190007573652020203D200045787420667573D6
:10E1A00065202020203D20004C6F636B2066757336
:10E1B000652020203D20004D617220203720323024
:10E1C000313300312E362E3800342E332E350056A2
:10E1D00023202020414444522020206F7020636F70
:10E1E00064652020202020696E73747275637469E1
:10E1F0006F6E2061646472202020496E74657272B3
:10E20000757074006E6F20766563746F7200726A49
:10E210006D702020006A6D70200057686174207056
:10E220006F72743A00506F7274206E6F7420737541
:10E2300070706F72746564004D7573742062652030
:10E2400061206C6574746572002000577269747483
:10E25000696E672045450052656164696E672045B7
:10E26000450045452065727220636E743D00504F35
:10E27000525400303D5A65726F2061646472003FF1
:10E280003D43505520737461747300403D454550C3
:10E29000524F4D207465737400423D426C696E6B41
:10E2A000204C454400453D44756D70204545505215
:10E2B0004F4D00463D44756D7020464C415348001B
:10E2C000483D48656C70004C3D4C69737420492F83
:10E2D0004F20506F72747300513D51756974005234
:10E2E0003D44756D702052414D00563D73686F7707
:10E2F00020696E7465727275707420566563746FF0
:10E30000727300593D506F727420626C696E6B00BD
:10E310002A0011241FBECFEFD1E2DEBFCDBF01E046
:10E320000CBF12E0A0E0B2E0EEE1FDEF03E00BBFB6
:10E3300002C007900D92A030B107D9F712E0A0E01B
:10E34000B2E001C01D92AE30B107E1F70F9460F367
:10E350000D948DFE01E20EBF0FEF0DBF11241FBE05
:10E360000D9460F30D9400F020E030E040ED57E0B4
:10E3700005C0FA013197F1F72F5F3F4F2817390792
:10E38000C0F308959C01260F311DC901A0E0B0E043
:10E390002F5F3F4FABBFFC018791882361F08093D3
:10E3A000C6008091C00086FFFCCF8091C0008064D1
:10E3B0008093C000EACF08958DE08093C6008091DD
:10E3C000C00086FFFCCF8091C00080648093C000B5
:10E3D0008AE08093C6008091C00086FFFCCF8091C8
:10E3E000C00080648093C00008950F94C2F10F9420
:10E3F000DCF10895FC019081992359F09093C600B7
:10E400008091C00086FFFCCF8091C0008064809323
:10E41000C0003196992379F70895282F982F929567
:10E420009F70892F805D8A3308F0895F8093C600D2
:10E430008091C00086FFFCCF8091C00080648093F3
:10E44000C000822F8F70982F905D9A3308F0995FEB
:10E450009093C6008091C00086FFFCCF8091C000E1
:10E4600080648093C00008959C01FB01853691056E
:10E470001CF46330710594F0C90164E670E00F94F8
:10E480002EFE605D7F4F6093C6008091C00086FFC6
:10E49000FCCF8091C00080648093C0002B30310598
:10E4A00014F43297B4F0C90164E670E00F942EFEC4
:10E4B0006AE070E00F942EFE605D7F4F6093C600AF
:10E4C0008091C00086FFFCCF8091C0008064809363
:10E4D000C000C9016AE070E00F942EFEC0968093E0
:10E4E000C6008091C00086FFFCCF8091C000806490
:10E4F0008093C00008951F93182F8EE692EE60E07F
:10E500000F94C2F11093C6008091C00086FFFCCF2B
:10E510008091C00080648093C0000F94DCF11F9153
:10E5200008952F923F924F925F926F927F928F92B7
:10E530009F92AF92BF92CF92DF92EF92FF920F9392
:10E540001F93DF93CF93CDB7DEB762970FB6F894E2
:10E55000DEBF0FBECDBF382E622ECA01DB015C01CB
:10E560006D01772420E2222E2E010894411C511CBB
:10E570008BC081E0A81680E0B80681E0C80680E084
:10E58000D80628F0C601AA27BB270F940DF2BB2797
:10E59000AD2D9C2D8B2D0F940DF28A2D0F940DF225
:10E5A0002092C6008091C00086FFFCCF8091C00001
:10E5B00080648093C0009DE29093C6008091C0006B
:10E5C00086FFFCCF8091C00080648093C0002092C1
:10E5D000C6008091C00086FFFCCF8091C00080649F
:10E5E0008093C00019828601750188249924A1E0D6
:10E5F0003A1651F03A1620F0B2E03B1661F409C029
:10E600000BBFF701779007C0C7010F9477FE782EF4
:10E6100002C0F7017080872D0F940DF22092C60082
:10E620008091C00086FFFCCF8091C0008064809301
:10E63000C000872D8052F401EF70F0708F3520F408
:10E64000E40DF51D708204C0E40DF51D8EE280839B
:10E650000894E11CF11C011D111D0894811C911CE2
:10E6600090E18916910409F0C2CF80E190E0A0E02A
:10E67000B0E0A80EB91ECA1EDB1E198AC2010F9493
:10E68000FAF10F94DCF16A94662009F072CF629679
:10E690000FB6F894DEBF0FBECDBFCF91DF911F91B3
:10E6A0000F91FF90EF90DF90CF90BF90AF909F9031
:10E6B0008F907F906F905F904F903F902F90089534
:10E6C0002F923F924F925F926F927F928F929F9282
:10E6D000AF92BF92CF92DF92EF92FF920F931F9370
:10E6E000DF93CF93CDB7DEB7CD53D1400FB6F894BB
:10E6F000DEBF0FBECDBF01E20EBF0FEF0DBF94B75F
:10E70000F894A89514BE80916000886180936000A1
:10E7100010926000789493FF05C0E0910002F091A0
:10E7200001021995279A2F9A8091C00082608093E8
:10E73000C00080E18093C40088E18093C1000000A4
:10E74000EE24FF24870144E0A42EB12CCC24DD2448
:10E7500024C0C5010197F1F70894E11CF11C011DCB
:10E76000111D21E2E2162EE4F20620E0020720E06D
:10E77000120718F031E0C32ED12CC801B70127ECE5
:10E780003BE140E050E00F9441FE611571058105C9
:10E79000910519F485B1805885B98091C00087FD35
:10E7A00003C0C114D104A9F2A6014F5F5F4FC25E3E
:10E7B000DE4F59834883CE51D140C25EDE4F8881FF
:10E7C0009981CE51D140019711F00D9410FEC05D9A
:10E7D000DE4F19821882C053D14060E0C15DDE4F28
:10E7E0001882CF52D14088249924C35DDE4F19820C
:10E7F0001882CD52D140C05EDE4F188219821A8233
:10E800001B82C052D140CE5CDE4F188219821A8220
:10E810001B82C253D140EE24FF2487010BBFF701B6
:10E8200007911691C45CDE4F19830883CC53D14005
:10E830000D940BFEC25EDE4F28813981CE51D1404E
:10E840002130310509F52091C600C25EDE4F1982E4
:10E850001882CE51D14022C02F5F3F4F4F4F5F4FA4
:10E86000213082E138078AE7480780E0580780F0C6
:10E87000C45CDE4FE881F981CC53D140EF5FFF4F9C
:10E8800019F0EE27FF27099420E030E040E050E047
:10E890008091C00087FFE0CF2091C600C35DDE4FAE
:10E8A00048815981CD52D1404F5F5F4FC35DDE4FEC
:10E8B00059834883CD52D140213209F063C64A3092
:10E8C000510508F05FC60894811C911C53E0851621
:10E8D000910409F059C600E010E018C081E280936D
:10E8E000C6008091C00086FFFCCF8091C00080648C
:10E8F0008093C0002F5F3F4F2931310579F70F9486
:10E90000DCF10F5F1F4F0530110519F020E030E0FA
:10E91000E5CF10920A0210920B0210920C02109294
:10E920000D02109206021092070210920802109235
:10E930000902109202021092030210920402109235
:10E9400005028FEE90EE60E00F94F5F180E191EE1C
:10E9500060E00F94C2F18091C00087FFFCCF9091DE
:10E96000C600903608F09F759032B8F09093C600BC
:10E970008091C00086FFFCCF8091C00080648093AE
:10E98000C000A0E2A093C6008091C00086FFFCCF2B
:10E990008091C00080648093C000983409F4D7C18E
:10E9A0009934B8F4923409F459C1933458F490333B
:10E9B00019F1903308F4E3C59F33A1F1903409F0C5
:10E9C000DEC5BDC0953409F470C1963409F0D7C5D1
:10E9D00098C1923509F42BC2933538F49C3409F46C
:10E9E000F5C1913509F0CBC518C2963509F445C279
:10E9F000993509F0C4C567C483E792EE62E00F94CD
:10EA0000F5F110920602109207021092080210927D
:10EA1000090210920A0210920B0210920C0210923C
:10EA20000D0213C18FE792EE62E00F94F5F18FEEC5
:10EA300090EE60E00F94F5F181E291EE60E00F94CA
:10EA4000C2F187EB91EE60E00F94F5F180E391EE77
:10EA500060E00F94C2F184EE90EE60E00F94F5F167
:10EA60008FE391EE60E00F94C2F186E090E061E008
:10EA700070E00F9434F20F94DCF18DE591EE60E0DC
:10EA80000F94C2F189EC91EE60E00F94F5F18EE401
:10EA900091EE60E00F94C2F183EC91EE60E00F9490
:10EAA000F5F18CE691EE60E00F94C2F18EE10F94E7
:10EAB0000DF288E90F940DF281E00F940DF20F949E
:10EAC000DCF18BE791EE60E00F94C2F119E0E0E039
:10EAD000F0E010935700E4918E2F0F940DF20F94F5
:10EAE000DCF18AE891EE60E00F94C2F1E3E0F0E03F
:10EAF00010935700E4918E2F0F940DF20F94DCF1D8
:10EB000089E991EE60E00F94C2F1E2E0F0E0109349
:10EB10005700E4918E2F0F940DF20F94DCF188EAE8
:10EB200091EE60E00F94C2F1E1E0F0E01093570045
:10EB30001491812F0F940DF20F94DCF107CF8BE825
:10EB400092EE62E00F94F5F18BE492EE60E00F94A8
:10EB5000F5F10F94DCF100E010E019C0C8016F2D51
:10EB60000F947FFEFF2031F489E492EE60E00F9471
:10EB7000C2F10BC0F092C6008091C00086FFFCCFAE
:10EB80008091C00080648093C0000F5F1F4FC80158
:10EB900081519F41A0E0B0E0ABBFFC01F790BAE229
:10EBA000FB1621F0E2E000301E07C1F60F94DCF105
:10EBB0000F94DCF187E592EE60E00F94F5F10F948D
:10EBC000DCF1CC24DD2400E010E01EC0C8010F946D
:10EBD00077FEF82E882331F489E492EE60E00F94FA
:10EBE000C2F10BC08093C6008091C00086FFFCCFAD
:10EBF0008091C00080648093C000FE1419F00894D6
:10EC0000C11CD11C0F5F1F4FC80181519F41A0E063
:10EC1000B0E0ABBFFC01E790FAE2EF1621F022E092
:10EC20000030120799F60F94DCF10F94DCF182E6C4
:10EC300092EE60E00F94C2F1C60161E070E00F94C3
:10EC400034F20F94DCF10F94DCF110920202109276
:10EC50000302109204021092050278CE89E992EE26
:10EC600062E00F94F5F1279A2F9A16C02F9880E052
:10EC700090E0E0EDF7E03197F1F7019684369105E9
:10EC8000C1F72F9A80E090E0E0EDF7E03197F1F7DF
:10EC9000019684369105C1F78091C00087FFE6CFC9
:10ECA0008091C00087FFFCCF64C485EA92EE62E0E9
:10ECB0000F94F5F140910202509103026091040219
:10ECC0007091050281E020E10F9491F2809102029F
:10ECD00090910302A0910402B091050280509F4FD1
:10ECE000AF4FBF4F8093020290930302A0930402A0
:10ECF000B093050280509041A040B04008F426CE69
:10ED0000A4CF83EB92EE62E00F94F5F140910602FE
:10ED100050910702609108027091090280E020E1A1
:10ED20000F9491F28091060290910702A09108023F
:10ED3000B091090280509F4FAF4FBF4F80930602A2
:10ED400090930702A0930802B0930902FFCD80ECD4
:10ED500092EE62E00F94F5F183E792EE60E00F949B
:10ED6000F5F18FE792EE60E00F94F5F18BE892EE0B
:10ED700060E00F94F5F189E992EE60E00F94F5F10F
:10ED800085EA92EE60E00F94F5F183EB92EE60E09D
:10ED90000F94F5F180EC92EE60E00F94F5F187ECC2
:10EDA00092EE60E00F94F5F188ED92EE60E00F9442
:10EDB000F5F18FED92EE60E00F94F5F18AEE92EEB0
:10EDC00060E00F94F5F183E093EEBDCD87EC92EE19
:10EDD00062E00F94F5F181E40F947BF282E40F94EA
:10EDE0007BF283E40F947BF284E40F947BF285E45E
:10EDF0000F947BF286E40F947BF287E40F947BF20E
:10EE000088E40F947BF28AE40F947BF28BE40F94F6
:10EE10007BF28CE40F947BF299CD88ED92EE62E068
:10EE20000F94F5F1772473948824992409C48FED05
:10EE300092EE62E00F94F5F140910A0250910B02BC
:10EE400060910C0270910D0282E020E10F9491F22A
:10EE500080910A0290910B02A0910C02B0910D02D8
:10EE600080509F4FAF4FBF4F80930A0290930B0289
:10EE7000A0930C02B0930D0269CD8AEE92EE62E08F
:10EE80000F94F5F184EE90EE60E00F94F5F18FECC5
:10EE900091EE60E00F94F5F1662477244301CC5D98
:10EEA000DE4F19821882C452D140D401C301B695F5
:10EEB000A79597958795CA5DDE4F88839983AA8326
:10EEC000BB83C652D140CC5DDE4FA881B981C4520C
:10EED000D1401196CC5DDE4FB983A883C452D14096
:10EEE000CD0162E070E00F9434F2B0E2B093C6005E
:10EEF0008091C00086FFFCCF8091C0008064809329
:10EF0000C000EDE2E093C6008091C00086FFFCCF18
:10EF10008091C00080648093C000F0E2F093C6004E
:10EF20008091C00086FFFCCF8091C00080648093F8
:10EF3000C000CA5DDE4FE880F9800A811B81C6529D
:10EF4000D140BB27A12F902F8F2D0F940DF2CA5DBA
:10EF5000DE4F8881C652D1400F940DF2B0E2FB2EF5
:10EF6000F092C6008091C00086FFFCCF8091C00067
:10EF700080648093C0000DE30093C6008091C000C0
:10EF800086FFFCCF8091C00080648093C00010E2B7
:10EF90001093C6008091C00086FFFCCF8091C00016
:10EFA00080648093C0008BBEF3012791C65DDE4F65
:10EFB0002883CA52D140A22EBB24CC24DD2408943D
:10EFC000611C711C811C911C8BBEF3018791282E42
:10EFD0003324442455240894611C711C811C911C09
:10EFE0008BBEF3013791C55DDE4F3883CB52D140E4
:10EFF0000894611C711C811C911C8BBEF30147910C
:10F00000C45DDE4F4883CC52D140ADEFEA2EAFEF66
:10F01000FA2EAFEF0A2FAFEF1A2F6E0C7F1C801E57
:10F02000911E142D032DF22CEE24EA0CFB1C0C1D5A
:10F030001D1D0F940DF220E22093C6008091C000A8
:10F0400086FFFCCF8091C00080648093C000C65DC5
:10F05000DE4F8881CA52D1400F940DF230E23093D6
:10F06000C6008091C00086FFFCCF8091C000806404
:10F070008093C000C45DDE4F8881CC52D1400F9494
:10F080000DF240E24093C6008091C00086FFFCCFA5
:10F090008091C00080648093C000C55DDE4F888190
:10F0A000CB52D1400F940DF250E25093C6008091A4
:10F0B000C00086FFFCCF8091C00080648093C000B8
:10F0C0008FEFE8168FEFF80680E0080780E018075A
:10F0D00031F484E092EE60E00F94C2F1DFC0D80119
:10F0E000C7018070907CA070B0708050904CA040A0
:10F0F000B040D1F52FEF3FE340E050E0E222F322B1
:10F1000004231523CA5DDE4FA880B980CA80DB8046
:10F11000C652D140AE0CBF1CC01ED11EAA0CBB1CD7
:10F12000CC1CDD1C8EE092EE60E00F94C2F1BB2798
:10F13000A12F902F8F2D0F940DF28E2D0F940DF285
:10F1400030E23093C6008091C00086FFFCCF8091F2
:10F15000C00080648093C0004EE34093C60080915D
:10F16000C00086FFFCCF87C08EE09EEFA0E0B0E03D
:10F17000E822F9220A231B239CE0E91694E9F90608
:10F1800090E0090790E0190709F088C0C45DDE4FE0
:10F19000A881CC52D140EA2EFF2400E010E0102FCD
:10F1A0000F2DFE2CEE24C55DDE4FB881CB52D14031
:10F1B000EB0EF11C011D111DD601C501817090706F
:10F1C000A070B070DC0199278827E80EF91E0A1F8D
:10F1D0001B1F20EF30E040E050E0A222B322C42207
:10F1E000D52241E1AA0CBB1CCC1CDD1C4A95D1F7F1
:10F1F000EA0CFB1C0C1D1D1D81E090E0A0E0B0E0BE
:10F20000282239224A225B2235E1220C331C441C7D
:10F21000551C3A95D1F7E20CF31C041D151D57013E
:10F220006801AA0CBB1CCC1CDD1C85E192EE60E0E1
:10F230000F94C2F1C801AA27BB270F940DF2BB2778
:10F24000A12F902F8F2D0F940DF28E2D0F940DF274
:10F2500090E29093C6008091C00086FFFCCF809121
:10F26000C00080648093C000AEE3A093C60080918C
:10F27000C00086FFFCCF8091C00080648093C000F6
:10F28000C601AA27BB270F940DF2BB27AD2D9C2DDD
:10F290008B2D0F940DF28A2D0F940DF20F94DCF14B
:10F2A000CC5DDE4FE881F981C452D140F99709F471
:10F2B0004DCBF4E0EF2EF12C012D112D6E0C7F1CA7
:10F2C000801E911EF2CD83E093EE62E00F94F5F183
:10F2D0008AE192EE60E00F94C2F18091C00087FF56
:10F2E000FCCF1091C6001F751093C6008091C0001E
:10F2F00086FFFCCF8091C00080648093C0000F9493
:10F30000DCF1812F81548A3108F036C1163409F4BA
:10F3100095C0173490F4133409F44EC0143430F40B
:10F320001134F1F0123409F01DC130C0143409F465
:10F3300059C0153409F016C16BC01A3409F4C4C0A1
:10F340001B3438F4173409F48FC0183409F00AC19B
:10F35000A1C01B3409F4D2C01C3409F003C1E8C0B9
:10F360008FEF81B90DC082B1809582B980E090E0C5
:10F37000E0EDF7E03197F1F70196883C9105C1F790
:10F380008091C00087FFEFCF12B8EFC08FEF84B934
:10F390000DC085B1809585B980E090E0E0EDF7E0A3
:10F3A0003197F1F70196883C9105C1F78091C00033
:10F3B00087FFEFCF15B8D9C08FEF87B90DC088B1DF
:10F3C000809588B980E090E0E0EDF7E03197F1F7C3
:10F3D0000196883C9105C1F78091C00087FFEFCF6F
:10F3E00018B8C3C08FEF8AB90DC08BB180958BB9A7
:10F3F00080E090E0E0EDF7E03197F1F70196883C8E
:10F400009105C1F78091C00087FFEFCF1BB8ADC059
:10F410008FEF8DB90DC08EB180958EB980E090E0F0
:10F42000E0EDF7E03197F1F70196883C9105C1F7DF
:10F430008091C00087FFEFCF1EB897C08FEF80BBD1
:10F440000DC081B3809581BB80E090E0E0EDF7E0F6
:10F450003197F1F70196883C9105C1F78091C00082
:10F4600087FFEFCF11BA81C08FEF83BB0DC084B38C
:10F47000809584BB80E090E0E0EDF7E03197F1F714
:10F480000196883C9105C1F78091C00087FFEFCFBE
:10F4900014BA6BC08FEF809301010FC080910201FD
:10F4A00080958093020180E090E0E0EDF7E03197F5
:10F4B000F1F70196883C9105C1F78091C00087FF64
:10F4C000EDCF1092020151C08FEF809304010FC065
:10F4D0008091050180958093050180E090E0E0ED4A
:10F4E000F7E03197F1F70196883C9105C1F78091DB
:10F4F000C00087FFEDCF1092050137C08FEF8093DA
:10F5000007010FC08091080180958093080180E079
:10F5100090E0E0EDF7E03197F1F70196883C910536
:10F52000C1F78091C00087FFEDCF109208011DC088
:10F530008FEF80930A010FC080910B01809580931B
:10F540000B0180E090E0E0EDF7E03197F1F70196F4
:10F55000883C9105C1F78091C00087FFEDCF1092E4
:10F560000B0103C085E292EEEEC98091C00087FFD7
:10F57000FCCF8091C600EAC988E392EEE4C98CE131
:10F5800091EEE1C988249924933011F1943028F444
:10F59000913089F09230B8F408C0953061F195301F
:10F5A000F0F0963009F048C043C02B3109F042C951
:10F5B00091E06BE13FC96227C15DDE4F2883CF52E6
:10F5C000D14092E037C9B22FA0E0622793E032C960
:10F5D000822F90E0A82BB92B622794E02BC92E3004
:10F5E00009F039C3622795E0C05DDE4F19821882A9
:10F5F000C053D1401FC9E1E0F0E0EC0FFD1FC05D3A
:10F60000DE4F08811981C053D140E00FF11F2083E4
:10F610000F5F1F4FC05DDE4F19830883C053D14079
:10F6200062270A171B0709F005C9D80196E002C92D
:10F63000261709F010C303C0973009F0FBC87724E0
:10F640009981933109F412C19431C8F4963009F4C8
:10F65000D8C0973050F4923009F406C1933009F4C1
:10F660006DC0913009F059C253C0913109F477C08F
:10F67000923108F0BBC0903109F04FC2F5C098310B
:10F6800009F487C0993150F4953109F4EFC09531F0
:10F6900008F4C6C1963109F040C2C2C19A3109F4DA
:10F6A0006CC09A3108F491C09B3109F45BC09D3164
:10F6B00009F033C29D81903359F48F81882311F46E
:10F6C0009EE11CC0813011F091E018C098E916C08D
:10F6D000892F807591F0903539F4E0E0F0E089E011
:10F6E0008093570094910AC0983539F4E3E0F0E034
:10F6F00089E080935700949101C090E01A821B82A8
:10F700008D818C831D829E831F8227E030E009C299
:10F710001A8288E08B8381E48C8386E58D8382E581
:10F720008E8389E48F8383E5888780E589878FE5E9
:10F730008A8782E38B872BE030E0F3C18A818139AD
:10F7400041F0823941F0803911F48FE005C080E04A
:10F7500003C082E001C08AE01A828B8344C0772410
:10F76000739482C08D81882311F48EE12CC0813086
:10F7700011F081E028C088E926C01A82E1E0F0E0BB
:10F7800089E08093570084918B831C8224E030E0D1
:10F79000C8C18B81803589F48C81883039F4E2E0EE
:10F7A000F0E089E08093570084910DC0E0E0F0E044
:10F7B00089E080935700849106C0E3E0F0E089E09F
:10F7C0008093570084911A82DFCF8D81836C99E0FA
:10F7D000E1E0F0E0082E90935700E89507B600FCB2
:10F7E000FDCF1A821B8223E030E09BC180EC8A832C
:10F7F000CE5CDE4F188219821A821B82C253D1401E
:10F800008EC18A8190E0A0E0B0E0582F44273327D2
:10F8100022278B8190E0A0E0B0E0DC0199278827C7
:10F82000282B392B4A2B5B2B8D8190E0A0E0B0E098
:10F83000282B392B4A2B5B2B8C8190E0A0E0B0E089
:10F84000BA2FA92F982F8827282B392B4A2B5B2BCF
:10F85000220F331F441F551FC05EDE4F288339839C
:10F860004A835B83C052D1401A8259C13A81C95C34
:10F87000DE4F3883C753D140CA5CDE4F1882C6536F
:10F88000D1408B81C82EDD24CA5CDE4F488159816E
:10F89000C653D140C42AD52A933109F082C0CE5C28
:10F8A000DE4F88819981AA81BB81C253D1408050AB
:10F8B000904CA340B04030F583E0CE5CDE4FE88052
:10F8C000F9800A811B81C253D140F70100935B008C
:10F8D00080935700E89507B600FCFDCFCE5CDE4F65
:10F8E000088119812A813B81C253D14000501F4FAA
:10F8F0002F4F3F4FCE5CDE4F088319832A833B8313
:10F90000C253D140C05EDE4F488159816A817B81FC
:10F91000C052D140DE011B9631E08C9111962C91A2
:10F9200011971296C75CDE4F2883C953D140C85C3B
:10F93000DE4F1882C853D14090E0C85CDE4FE881AA
:10F94000F981C853D1408E2B9F2B0C01FA01609393
:10F950005B0030935700E89511244E5F5F4F6F4F67
:10F960007F4F0EEFE02E0FEFF02ECE0CDF1CC114F8
:10F97000D10499F685E0C05EDE4F088119812A81A5
:10F980003B81C052D140F80120935B008093570027
:10F99000E89507B600FCFDCF81E180935700E8951C
:10F9A00035C0C05EDE4F88819981AA81BB81C0527B
:10F9B000D140B695A795979587957C018601ABE0D8
:10F9C000AA2EB12CAC0EBD1E0BC0D5016D915D01F0
:10F9D000C7010F947FFE0894E11CF11C01501040F8
:10F9E0000115110591F7A60160E070E0440F551F65
:10F9F000661F771FC05EDE4FE880F9800A811B8199
:10FA0000C052D1404E0D5F1D601F711F1A82C05E33
:10FA1000DE4F488359836A837B83C052D1407FC0C5
:10FA2000FA80C55CDE4FF882CB53D140C65CDE4F16
:10FA30001882CA53D1408B81C82EDD24C65CDE4FAC
:10FA400008811981CA53D140C02AD12A1A828981DA
:10FA5000BE016D5F7F4F843121F59601C05EDE4FA0
:10FA6000E880F9800A811B81C052D1400BBFF701A9
:10FA700087919691DB018C9311969C936E5F7F4FDB
:10FA8000D801C7010296A11DB11DC05EDE4F88835B
:10FA90009983AA83BB83C052D14022503040F1F6F3
:10FAA00036C0C05EDE4F288139814A815B81C052F9
:10FAB000D1400894C108D108760100E010E0089414
:10FAC000C11CD11C0894E11CF11C011D111DE20E8A
:10FAD000F31E041F151F21BDBB27A52F942F832FB5
:10FAE00082BD2F5F3F4F4F4F5F4FF89A80B5DB01CC
:10FAF0008D93BD012E153F054007510761F7C05E8C
:10FB0000DE4F288339834A835B83C052D1409601FC
:10FB10002D5F3F4FFB01108204C080EC8A8322E0FE
:10FB200030E08BE18093C6008091C00086FFFCCF5F
:10FB30008091C00080648093C000C15DDE4FF88179
:10FB4000CF52D140F093C6008091C00086FFFCCF19
:10FB50008091C00080648093C000432F3093C60022
:10FB60008091C00086FFFCCF8091C00080648093AC
:10FB7000C000922F2093C6008091C00086FFFCCF6A
:10FB80008091C00080648093C0008EE08093C600A6
:10FB90008091C00086FFFCCF8091C000806480937C
:10FBA000C00065E1C15DDE4FE880CF52D1406E25D7
:10FBB00069276427FE01319610C090819093C6009A
:10FBC0008091C00086FFFCCF31968091C000806498
:10FBD0008093C0006927215030402115310569F715
:10FBE0006093C6008091C00086FFFCCF8091C0006A
:10FBF00080648093C00085B1805885B9772081F4F6
:10FC0000C15DDE4F0881CF52D1400F5FC15DDE4F35
:10FC10000883CF52D14090E0A0E0B0E00D941AF4F8
:10FC200027982F9880E090E020ED37E0F901319798
:10FC3000F1F7019684369105C9F700008091C00064
:10FC40008D7F8093C00081E180935700E895EE2777
:10FC5000FF270994FFCF90E00D941AF497FB092E2B
:10FC600007260AD077FD04D02ED006D000201AF443
:10FC7000709561957F4F0895F6F7909581959F4F08
:10FC80000895A1E21A2EAA1BBB1BFD010DC0AA1FDD
:10FC9000BB1FEE1FFF1FA217B307E407F50720F0F5
:10FCA000A21BB30BE40BF50B661F771F881F991F70
:10FCB0001A9469F760957095809590959B01AC01B9
:10FCC000BD01CF010895AA1BBB1B51E107C0AA1FAC
:10FCD000BB1FA617B70710F0A61BB70B881F991FED
:10FCE0005A95A9F780959095BC01CD010895F99991
:10FCF000FECF92BD81BDF89A992780B50895262F31
:10FD0000F999FECF1FBA92BD81BD20BD0FB6F89400
:0EFD1000FA9AF99A0FBE01960895F894FFCF63
:040000033000E000E9
:00000001FF